:020000040800F2
:10000000B00D0020090E0008C9030008CB0300084A
:10001000CF030008D3030008D70300080000000046
:10002000000000000000000000000000DB030008EA
:10003000DD03000800000000DF030008210E0008B7
:10004000230E0008230E0008230E0008230E0008CC
:10005000230E0008230E0008230E0008230E0008BC
:10006000230E0008230E0008230E0008230E0008AC
:10007000230E0008230E0008230E0008230E00089C
:10008000230E0008230E0008230E0008230E00088C
:10009000230E0008230E0008230E0008230E00087C
:1000A000230E0008230E0008230E0008230E00086C
:1000B000230E00081B060008230E0008230E00086C
:1000C000230E0008230E0008230E0008230E00084C
:1000D000230E0008392E0008230E0008D70600085A
:1000E000230E0008230E0008230E000800F002F87B
:1000F00000F06BF80AA090E8000C82448344AAF157
:100100000107DA4501D100F060F8AFF2090EBAE854
:100110000F0013F0010F18BFFB1A43F0010318473B
:10012000786C0000986C00000A444FF0000C10F846
:10013000013B13F0070408BF10F8014B1D1108BF65
:1001400010F8015B641E05D010F8016B641E01F805
:10015000016BF9D113F0080F1EBF10F8014BAD1C55
:100160000C1B09D16D1E58BF01F801CBFAD505E073
:1001700014F8016B01F8016B6D1EF9D59142D6D3CD
:10018000704700000023002400250026103A28BFF5
:1001900078C1FBD8520728BF30C148BF0B607047F9
:1001A000642905F0FF83782905F038840020704722
:1001B0001FB505F065FE04000020002105F0FAFEE1
:1001C000401C60601FBD10B510BD05F07DFE1146DE
:1001D000FFF7EEFF00F008F805F09BFE03B4FFF711
:1001E000F2FF03BC02F0C2FD08B502F055FD4FF46A
:1001F000A06000F029FE00F083FA00F04FFD00F04F
:10020000E4FB40F2E731472000F0DAF925215848B5
:1002100005F074FD4FF4165000F00EFA04F081FA68
:100220004FF4FA7002F075FD012004F091FA00F02D
:10023000C3FD10234FA20021084600F0A0FC1023AC
:100240004EA20221002000F09AFC10234DA20421AE
:10025000002000F094FC10234CA20621002000F0A6
:100260008EFC84E0002000F092FA4A4908800120C8
:1002700000F08DFA48490880022000F088FA4749CA
:100280000880032000F083FA4549088002F0EBFE65
:10029000374804F0CDFC404800884249096888424C
:1002A00008DD41480068012804D14049086000F099
:1002B0009AFD02E000203D490860364800883C492C
:1002C0000968884208DA38480068012804D13949A9
:1002D000086000F088FD02E00020364908602F48E1
:1002E000008835490968884208DD2F4800680128E0
:1002F00004D13249086000F076FD02E000202F4969
:100300000860274800882E490968884208DD264889
:100310000068012804D12B49086000F064FD02E068
:100320000020284908601020032300901948028803
:100330000021462000F0DFFB102003230090164828
:1003400002880221462000F0D6FB102003230090F3
:10035000124802880421462000F0CDFB1020032320
:1003600000900F4802880621462000F0C4FB79E780
:100370003D050020486561743A0000004D51323A55
:10038000000000004D51353A000000004D51393A4F
:1003900000000000280000202A0000202C0000207F
:1003A0002E00002014000020240000200400002063
:1003B0002000002008000020180000200C00002071
:1003C0001C00002010000020704700BFFEE700BFA7
:1003D000FEE700BFFEE700BFFEE7704770477047CB
:1003E0000CB50020019000906C48006840F480300B
:1003F0006A49086000BF6948006800F40030009056
:100400000198401C0190009818B90198B0F5A06FB0
:10041000F1D16248006800F4003010B10120009072
:1004200001E0002000900098012843D15C4800685A
:1004300040F010005A4908600846006820F00300A8
:1004400008600846006840F00200086053484068B1
:10045000524948600846406848600846406840F491
:10046000806048600846406820F47C104860084678
:10047000406840F4E81048600846006840F080702A
:10048000086000BF4548006800F000700028F9D0FF
:100490004248406820F003004049486008464068F0
:1004A00040F00200486000BF3C48406800F00C008B
:1004B0000828F9D10CBD10B5FFF792FF10BD10B59B
:1004C0003648006840F0010034490860084640683A
:1004D00034490840314948600846006832490840BC
:1004E0002E4908600846006820F48020086008460D
:1004F000406820F4FE0048604FF41F008860FFF75A
:10050000DAFF4FF000602949086010BD10B50021E6
:1005100000200022214B5B6803F00C0121B104296B
:1005200006D0082928D107E0214B224C236027E080
:100530001F4B204C236023E0184B5B6803F47010C2
:10054000164B5B6803F48032022303EB904022B920
:10055000194B4343174C23600DE0104B5B6803F4C9
:10056000003323B1144B4343124C236003E0104B80
:100570004343104C236003E00D4B0E4C236000BF3F
:1005800000BF064B5B68C3F303130C4CE15C094BE3
:100590001B68CB40074C236010BD000000100240D8
:1005A000002002400000FFF8FFFFF6FE08ED00E02B
:1005B00000127A003000002000093D0034000020C5
:1005C0007FB505460C460121022000F0D4FFADF8AE
:1005D0000850ADF804400020ADF80A00ADF8060060
:1005E00001A9144801F0F6FA01221146114801F060
:1005F00068FE1D208DF8000000208DF8010003200A
:100600008DF8020001208DF80300684600F021FCFF
:100610000121084801F03AFE7FBD10B501210548CF
:1006200002F0FDF828B10121024802F009F902F0B8
:100630006EFD10BD0004004010B586B004460121D7
:10064000082000F08BFF0121880400F094FF4FF494
:100650008060ADF8140003208DF8160018208DF886
:10066000170005A9244800F0BDFC4FF40060ADF868
:10067000140004208DF8170005A91F4800F0B2FCF3
:1006800027208DF8000003208DF801008DF802006E
:1006900001208DF80300684600F0DBFB0194002088
:1006A000ADF80800ADF80A00ADF80C00ADF8100088
:1006B0000C20ADF80E0001A9104800F0F6FF012251
:1006C00040F225510D4801F088F801210B4801F056
:1006D00078F806B010BD08B540F22551074801F082
:1006E00061F940B1054801F0DDF8C0B20090012188
:1006F000684602F00DFE08BD000C014000480040B5
:1007000000B587B00121480200F028FF0121042034
:1007100000F024FF4FF4004000F084FE00208DF82C
:100720001B000F20ADF8180003208DF81A0006A951
:10073000244800F057FC002001904FF40060049022
:100740004FF46020039000208DF809008DF8080018
:1007500001208DF8140001A91B4802F09CF801212A
:10076000194802F0C4F8184802F0E3F800BF164830
:1007700002F0E4F80128FAD0134802F0E9F800BFCB
:10078000114802F0EAF80128FAD007B000BD70B5B0
:1007900004460523012221460B4802F014F90121E9
:1007A000094802F0E4F800BF0221074802F050FABD
:1007B0000028F9D0044802F06DF905462D122846AC
:1007C00070BD0000000801400024014010B54FF446
:1007D0008071F94800F0B3FC4FF40071F64800F066
:1007E000AEFC4FF40071F44800F0ABFC4FF48071A4
:1007F000F14800F0A6FC10BD10B54FF48071EE4832
:1008000000F09DFC4FF40071EB4800F09AFC4FF4AF
:100810000071E94800F093FC10BD10B54FF48071F1
:10082000E54800F08CFC4FF48071E34800F089FC4F
:1008300010BD2DE9F04105462C464FF48071DE488D
:1008400000F07FFC00261CE0274607F08007802F81
:1008500004D1B900D84800F072FC04E04FF40071F4
:10086000D54800F06EFC6006040E4FF48071D2484B
:1008700000F065FC4FF48071CF4800F062FC701C02
:10088000C6B2082EE0DBBDE8F08110B50446FFF7E4
:100890009DFF7820FFF7CDFFFFF7BFFF0020FFF798
:1008A000C8FFFFF7BAFF2046FFF7C3FFFFF7B5FF0A
:1008B000FFF7A2FF10BD10B50446FFF787FF7820B1
:1008C000FFF7B7FFFFF7A9FF4020FFF7B2FFFFF7E1
:1008D000A4FF2046FFF7ADFFFFF79FFFFFF78CFF58
:1008E00010BD70B504460D461DB1E0B2FFF7E3FF41
:1008F00002E0E0B2FFF7C9FF70BD70B50646002404
:1009000018E004F1B0000021FFF7EBFF00210846DA
:10091000FFF7E7FF00211020FFF7E3FF002505E0C8
:1009200001213046FFF7DDFF681CC5B2802DF7DBE3
:10093000601CC4B2082CE4DB70BD06E041F6650122
:1009400000E0491E0029FCD1401E0028F6D1704766
:10095000014605E0002001E0421CD0B27B28FBDB11
:100960000A1EA1F10101F5D1704770B504460D468C
:1009700005F1B0000021FFF7B4FF102141EA141087
:100980000021FFF7AEFF04F00F000021FFF7A9FFE1
:1009900070BD10B500218D20FFF7A3FF00211420AA
:1009A000FFF79FFF0021AF20FFF79BFF10BD10B5A1
:1009B00000218D20FFF795FF00211020FFF791FF08
:1009C0000021AE20FFF78DFF10BD70B5002418E0A8
:1009D00004F1B0000021FFF784FF00210846FFF773
:1009E00080FF00211020FFF77CFF002505E001219A
:1009F0000020FFF776FF681CC5B2802DF7DB601C76
:100A0000C4B2082CE4DB70BD70B5002418E004F11A
:100A1000B0000021FFF765FF00210846FFF761FFE6
:100A200000211020FFF75DFF002505E001210846A9
:100A3000FFF757FF681CC5B2802DF7DB601CC4B2FE
:100A4000082CE4DB70BD2DE9F04707460E469046C2
:100A5000994600250024A8F12000C5B27F2F02DDB1
:100A60000027B01CC6B2B9F1100F24D13146384668
:100A7000FFF77BFF002408E004EB05114F4A505CB0
:100A80000121FFF72EFF601CC4B2082CF4DB701CA0
:100A9000C1B23846FFF769FF002409E004EB0511F5
:100AA0000831464A505C0121FFF71BFF601CC4B2AD
:100AB000082CF3DB12E031463846FFF756FF0024DE
:100AC0000AE005EB45013E4A02EB4101085D0121C8
:100AD000FFF707FF601CC4B2062CF2DBBDE8F0870D
:100AE00010B50246012000E050430B1EA1F10104A5
:100AF000E1B2F9D110BD2DE9FF5F074691461E46D0
:100B00000E9D4FF0000A002435E0301B401EC1B29C
:100B10000A20FFF7E5FFB9FBF0F00A21B0FBF1F284
:100B200001FB1208BAF1000F14D1701EA04211DDB2
:100B3000B8F1000F0CD1AB4605EBDB71491001FB9E
:100B40000471C8B22B4620220199FFF77CFF10E008
:100B50004FF0010AAB4605EBDB71491001FB047154
:100B6000C8B208F13001CAB22B460199FFF76BFFFA
:100B700000BF601CC4B2B442C7DBBDE8FF9F2DE9D3
:100B8000F04104460F461546984600260FE0AA5D40
:100B9000434639462046FFF756FF04F10800C4B229
:100BA000782C02DD0024B81CC7B2701CC6B2A85D48
:100BB0000028ECD1BDE8F081000C01403A67000844
:100BC000126500082DE9F04180460E4615460027C3
:100BD00031464046FFF7C9FE00240AE0744A02EBA2
:100BE0008511085D0121FFF77CFE781CC7B2601CEF
:100BF000C4B2102CF2DB701CC1B24046FFF7B5FE48
:100C000000240CE06900491C694A02EB4111085DAF
:100C10000121FFF766FE781CC7B2601CC4B2102C1D
:100C2000F0DBBDE8F0812DE9F05F06460F46904607
:100C30001C46DDF828A04FF0000BE11704EB5171C2
:100C4000C910A4EBC10131B92046E11704EB517181
:100C5000C1F3C70506E02046E11704EB5171C91046
:100C6000491CCDB23D4615E029463046FFF77DFED2
:100C7000B1460BE059460BF1010B1AF801000121B6
:100C8000FFF72FFE09F1010000F0FF09C145F1DB7C
:100C9000681CC5B2A542E7DBBDE8F09F08B501219D
:100CA000082000F05BFC4FF44070ADF8000010200D
:100CB0008DF8030003208DF8020069463D4800F0DE
:100CC00091F94FF440713B4800F039FA4FF4487005
:100CD00002F01FF80021AE20FFF703FE00210846B6
:100CE000FFF7FFFD00211020FFF7FBFD0021402052
:100CF000FFF7F7FD0021B020FFF7F3FD0021812071
:100D0000FFF7EFFD0021FF20FFF7EBFD0021A12001
:100D1000FFF7E7FD0021A620FFF7E3FD0021A82053
:100D2000FFF7DFFD00213F20FFF7DBFD0021C8209A
:100D3000FFF7D7FD0021D320FFF7D3FD00210846A0
:100D4000FFF7CFFD0021D520FFF7CBFD002180204C
:100D5000FFF7C7FD0021D820FFF7C3FD00210520C4
:100D6000FFF7BFFD0021D920FFF7BBFD0021F120D7
:100D7000FFF7B7FD0021DA20FFF7B3FD00211220B5
:100D8000FFF7AFFD0021DB20FFF7ABFD0021302096
:100D9000FFF7A7FD00218D20FFF7A3FD0021142000
:100DA000FFF79FFD0021AF20FFF79BFD08BD00006E
:100DB00044000020000C014008B50121082000F08B
:100DC000CDFB0120ADF8000010208DF803000320BA
:100DD0008DF8020069460B4800F004F9012109482A
:100DE00000F0ADF908BD10B50121064800F0A9F9E1
:100DF0004FF47A7001F08DFF0121024800F09FF955
:100E000010BD0000000C0140094880470948004718
:100E1000FEE7FEE7FEE7FEE7FEE7FEE7FEE7FEE7AA
:100E2000FEE7FEE704480549054A064B7047000007
:100E3000BF040008ED000008B0070020B00D00203E
:100E4000B0090020B009002031490143314A116046
:100E5000704770B5002100230F22C47804B32D4CD5
:100E6000246804F4E064C4F5E064210AC1F10403D9
:100E7000CA40447804FA03F18478144021430901FC
:100E8000254C0678A155047804F01F050124AC40D8
:100E900005786D11AD0005F1E025C5F8004109E0C8
:100EA000047804F01F050124AC401C4D067876112F
:100EB00045F8264070BD1A4A0A400243154B1B1FD5
:100EC0001A60704739B1134A121D12680243114B60
:100ED0001B1D1A6006E00F4A121D126882430D4B5B
:100EE0001B1D1A607047042808D14FF0E0210969E2
:100EF00041F004014FF0E022116107E04FF0E021E2
:100F0000096921F004014FF0E022116170470000EF
:100F10000000FA050CED00E000E400E080E100E0F4
:100F200080FFFF1F10B50446CC48844208D1012140
:100F3000042000F02DFB0021042000F029FB46E0F6
:100F4000C748844208D10121082000F021FB00217C
:100F5000082000F01DFB3AE0C248844208D101217C
:100F6000102000F015FB0021102000F011FB2EE0F6
:100F7000BD48844208D10121202000F009FB002156
:100F8000202000F005FB22E0B848844208D101216E
:100F9000402000F0FDFA0021402000F0F9FA16E0B0
:100FA000B348844208D10121802000F0F1FA0021E9
:100FB000802000F0EDFA0AE0AE48844207D101211A
:100FC000801500F0E5FA0021A01500F0E1FA10BD4F
:100FD00010B50121084600F0DBFA0021012000F0E5
:100FE000D7FA10BD2DE9F041024600250026002069
:100FF00000230024002791F803C00CF00F0591F89E
:1010000003C00CF0100CBCF1000F03D091F802C02B
:101010004CEA050591F800C0BCF1000F31D014680E
:1010200000202BE04FF0010C0CFA00F3B1F800C0E7
:101030000CEA03069E4220D183004FF00F0C0CFAFD
:1010400003F7BC4305FA03FC4CEA040491F803C01F
:10105000BCF1280F06D14FF0010C0CFA00FCC2F8CD
:1010600014C00AE091F803C0BCF1480F05D14FF05D
:10107000010C0CFA00FCC2F810C0401C0828D1D3A7
:101080001460B1F800C0BCF1FF0F34DD54680020DB
:101090002EE000F1080C4FF0010808FA0CF3B1F84B
:1010A00000C00CEA03069E4221D183004FF00F0CD2
:1010B0000CFA03F7BC4305FA03FC4CEA040491F86C
:1010C00003C0BCF1280F05D100F1080C08FA0CF898
:1010D000C2F8148091F803C0BCF1480F07D100F1A9
:1010E000080C4FF0010808FA0CF8C2F81080401CF8
:1010F0000828CED35460BDE8F0814FF6FF7101801F
:10110000022181700421C17070470246002093685B
:101110000B400BB1012000E00020704701468868B9
:1011200080B2704702460020D3680B400BB101200B
:1011300000E0002070470146C86880B27047016136
:101140007047416170470AB1016100E04161704739
:10115000C16070474FF480320A43826181618261CD
:1011600082698269704702460020434B18684FF637
:101170008073184040EA021008433F4B18607047E4
:101180003E49C8617047F0B50A460023002400219B
:10119000002500F00046B6F1004F02D1364EF1694D
:1011A00001E0354E7168C0F3034583B200F4401688
:1011B000B6F5401F08D121F070612F4E766826F0F9
:1011C00070662D4F7E6012E000F48016B6F5801F29
:1011D00006D1032606FA05F4A14341F0706106E04A
:1011E000460D360103FA06F6B14341F0706122B1B3
:1011F000460D360103FA06F6314300F00046B6F11B
:10120000004F02D11C4EF16101E01B4E7160F0BD38
:1012100030B500228B071C0F0F2303FA04F2164B84
:1012200008338C1053F824309343134C08348D103A
:1012300044F8253023468C1053F824308C07240FB3
:1012400000FA04F423430C4C08348D1044F8253084
:1012500030BD0A49DC3108607047000000080140D9
:10126000000C014000100140001401400018014032
:10127000001C01400020014000000140000020420D
:10128000DF48006840F00100DD490860084640681A
:10129000DC490840DA49486008460068DA490840F5
:1012A000D74908600846006820F480200860084696
:1012B000406820F4FE0048604FF41F0088607047CB
:1012C000CF49096821F48031CD4A1160114609687F
:1012D00021F480211160B0F5803F03D0B0F5802F5C
:1012E0000ED106E0C649096841F48031C44A116054
:1012F00007E0C349096841F4A021C14A116000E038
:1013000000BF00BF704710B5014600220023002037
:101310004A11012A02D1BA4C236806E0022A02D1FE
:10132000B74C236A01E0B64C636A01F01F02012446
:1013300094401C400CB1012000E0002010BD38B5E5
:10134000002000900024002500BF3120FFF7DBFFC4
:1013500005460098401C00900098B0F5A06F01D0A1
:10136000002DF2D03120FFF7CEFF08B1012400E0BC
:101370000024204638BD01460020A14A106820F014
:10138000F80040EAC10010607047A049086070474B
:10139000024600209A4B586820F47C1042EA010370
:1013A0001843974B58607047984908667047014644
:1013B0000020934A506820F00300084350607047B3
:1013C0008F48406800F00C007047014600208C4AAE
:1013D000506820F0F000084350607047014600203C
:1013E000874A506820F4E060084350607047014627
:1013F0000020834A506820F4605040EAC1005060E9
:10140000704729B17E4A527A02437D4B5A7204E0FA
:101410007B4A527A82437A4B5A7270477B49D83161
:101420000860704701460020754A506820F440402B
:101430000843506070470021714A20321170704A91
:1014400082F82010012802D004280AD104E00121EA
:101450006B4A2032117005E00521694A2032117073
:1014600000E000BF00BF70476949086070476449E9
:10147000096A0143624A116270476549443908604C
:10148000704730B500210022002400235C4D6D68B8
:1014900005F00C0121B1042905D0082923D105E06C
:1014A0005C4D056022E05B4D05601FE0544D6D68AA
:1014B00005F47012524D6D6805F48034022505EB79
:1014C00092421CB9544D554305600BE04C4D6D687C
:1014D00005F400351DB1504D5543056002E04D4DFA
:1014E0005543056002E04B4D056000BF00BF444D11
:1014F0006D6805F0F0010909484D6B5C0568DD4039
:1015000045603F4D6D6805F4E061090A434D6B5C31
:101510004568DD4085603A4D6D6805F46051C90A43
:101520003E4D6B5C4568DD40C560354D6D6805F42A
:101530004041890B3A4D6B5CC568B5FBF3F505611D
:1015400030BD29B12E4A526902432D4B5A6104E045
:101550002B4A526982432A4B5A61704729B1284A63
:1015600092690243264B9A6104E0254A92698243BC
:10157000234B9A61704729B1214AD2690243204B1B
:10158000DA6104E01E4AD26982431D4BDA6170477A
:1015900029B11B4AD2680243194BDA6004E0184AA9
:1015A000D2688243164BDA60704729B1144A126937
:1015B0000243134B1A6104E0114A12698243104B33
:1015C0001A61704712494039086070470F49C86472
:1015D00070470B49C87170470948406A40F08070F5
:1015E00007494862704701460020054A92680A4050
:1015F0000AB1012000E0002070470149887270475D
:10160000001002400000FFF8FFFFF6FE000042421B
:101610008004424200127A0000093D00C403002009
:10162000D403002010B50446FB48844209D10121AF
:101630008803FFF7ADFF00214FF48040FFF7A8FFBC
:1016400032E0F648844209D101214804FFF7ADFF9A
:1016500000214FF40030FFF7A8FF25E0F048844256
:1016600009D101218804FFF7A0FF00214FF4802059
:10167000FFF79BFF18E0EB48844209D10121C80421
:10168000FFF793FF00214FF40020FFF78EFF0BE0E0
:10169000E548844208D101210805FFF786FF0021B3
:1016A0004FF48010FFF781FF10BD2DE9F04786B0A1
:1016B00005460E460024A24600BFA1460027B08979
:1016C00000B100BF2F462C8A4CF6FF700440F08812
:1016D00004432C82AC894EF6F3100440B088318963
:1016E0000843718908430443AC81AC8A4FF6FF403C
:1016F0000440B0890443AC8201A8FFF7C2FEC6488B
:10170000874202D1DDF810A001E0DDF80CA0A88925
:1017100000F4004040B10AEBCA0000EB0A10316847
:101720004900B0FBF1F807E00AEBCA0000EB0A1031
:1017300031688900B0FBF1F86420B8FBF0F00401D7
:101740002009642101FB1089A88900F4004040B100
:10175000322000EBC900B0FBF1F000F007000443B9
:1017600008E0322000EB09106421B0FBF1F000F03A
:101770000F0004432C8106B0BDE8F0874FF41651EA
:10178000016000218180C18001810C214181002103
:101790008181704710B502460020108A4FF2FF0386
:1017A00018400B884C8823438C882343CC882343E0
:1017B0001843108210BD0021018041808180C180CA
:1017C000704721B1828942F40052828104E082890B
:1017D0004DF6FF731A4082817047F0B5034600242E
:1017E00000260025002040F66A17B94200D100BF4C
:1017F0001846C1F3421401F01F06012707FA06F547
:10180000012C01D10C3004E0022C01D1103000E099
:1018100014301AB107682F43076002E00768AF432E
:101820000760F0BD1AB1838A0B43838202E0838A8A
:101830008B4383827047028A4FF6F0731A4002820C
:10184000028A0A430282704782894FF2FF731A406C
:10185000828182890A438281704721B1828942F064
:101860000202828104E082894FF6FD731A40828170
:101870007047028A4FF6DF731A400282028A0A43D7
:101880000282704721B1028A42F48042028204E05F
:10189000028A4BF6FF731A4002827047C1F30802B6
:1018A0008280704701468888C0F3080070478189AC
:1018B00041F0010181817047028BD2B20283028B19
:1018C00042EA012202837047028B02F47F420283C4
:1018D000028B0A430283704721B1828A42F02002C0
:1018E000828204E0828A4FF6DF731A408282704758
:1018F00021B1828A42F01002828204E0828A4FF68D
:10190000EF731A408282704721B1828A42F0080246
:10191000828204E0828A4FF6F7731A40828270470F
:1019200021B1828942F40042828103E08289C2F3BC
:101930000E028281704721B1828A42F40062828263
:1019400004E0828A4FF2FF731A4082827047828AD3
:101950004FF6FB731A408282828A0A438282704762
:1019600021B1828A42F00202828204E0828A4FF62A
:10197000FD731A408282704702460020B1F5007F55
:1019800000D100BF13880B400BB1012000E0002004
:10199000704701F40072B2F5007F00D100BFCA4366
:1019A0000280704770B50246002400230025002005
:1019B00040F66A16B14200D100BFC1F3421501F0F2
:1019C0001F03012606FA03F3012D02D19689334045
:1019D00006E0022D02D1168A334001E0968A334098
:1019E0000C12012606FA04F41688344013B10CB127
:1019F000012000E0002070BD10B50022002340F659
:101A00006A14A14200D100BF0A1201249440A3B27B
:101A1000DC43048010BD0000003801400044004059
:101A200000480040004C00400050004010B5044603
:101A3000FE48844208D10121C014FFF7A9FD00210E
:101A4000E014FFF7A5FDC4E0B4F1804F08D10121F7
:101A50000846FFF7AAFD00210120FFF7A6FDB8E028
:101A6000F348844208D101210220FFF79EFD0021A6
:101A70000220FFF79AFDACE0EE48844208D1012134
:101A80000420FFF792FD00210420FFF78EFDA0E067
:101A9000E948844208D101210820FFF786FD002192
:101AA0000820FFF782FD94E0E448844208D1012138
:101AB0001020FFF77AFD00211020FFF776FD88E067
:101AC000DF48844208D101212020FFF76EFD00216C
:101AD0002020FFF76AFD7CE0DA48844208D101212A
:101AE0004014FFF755FD00216014FFF751FD70E031
:101AF000D548844209D10121C804FFF749FD0021DE
:101B00004FF40020FFF744FD63E0D048844209D140
:101B100001210805FFF73CFD00214FF48010FFF77D
:101B200037FD56E0CA48844209D101214805FFF734
:101B30002FFD00214FF40010FFF72AFD49E0C548B2
:101B4000844208D101214020FFF72FFD00214020D1
:101B5000FFF72BFD3DE0C048844208D101218020E1
:101B6000FFF723FD00218020FFF71FFD31E0BB4878
:101B7000844208D101218015FFF717FD0021A0152F
:101B8000FFF713FD25E0B648844209D1012108047E
:101B9000FFF7FEFC00214FF48030FFF7F9FC18E05E
:101BA000B048844209D101214804FFF7F1FC00212B
:101BB0004FF40030FFF7ECFC0BE0AB48844208D157
:101BC00001218804FFF7E4FC00214FF48020FFF797
:101BD000DFFC10BD00220288944B98420ED0994B36
:101BE00098420BD0B0F1804F08D0914B984205D06D
:101BF000904B984202D0904B984204D14FF68F738D
:101C00001A404B881A438D4B984207D08C4B984210
:101C100004D04FF6FF431A40CB881A4302808B88CA
:101C200083850B880385814B98420BD0854B984266
:101C300008D08B4B984205D08A4B984202D08A4BF1
:101C4000984201D10B7A038601238382704770B5D5
:101C5000002400220023058C4FF6FE7635400584D3
:101C6000028C8388048B4FF68F752C40B51E2C4058
:101C70000D882C43751E2A400D892A434D882A431E
:101C80006A4DA8420BD06F4DA84208D0744DA842AF
:101C900005D0744DA84202D0734DA84213D14FF61F
:101CA000F7752A404D892A434FF6FB752A408D88E7
:101CB0002A434FF6FF652B404FF6FF552B408D8989
:101CC0002B43CD892B4383800483CD888586028472
:101CD00070BD70B5002400220023058C4FF6EF760E
:101CE00035400584028C8388048B48F6FF752C40B0
:101CF0004FF6FF452C400D884FF6FF7606EA052586
:101D00002C434FF6DF752A400D8906EA05152A4354
:101D10004D8806EA05152A43444DA84202D0494D94
:101D2000A8421DD14FF67F752A404D894FF6FF76A8
:101D300006EA05152A434FF6BF752A408D8806EA44
:101D400005152A434FF6FF352B404FF2FF752B4008
:101D50008D8906EA85052B43CD8906EA85052B4347
:101D600083800483CD880587028470BD70B500240C
:101D700000220023058C4FF6FF6635400584028C57
:101D80008388848B4FF68F752C404FF6FC752C4062
:101D90000D882C434FF6FF552A400D894FF6FF76EC
:101DA00006EA05252A434D8806EA05252A431F4DE4
:101DB000A84202D0234DA8421DD14FF2FF752A4000
:101DC0004D894FF6FF7606EA05252A434FF6FF3583
:101DD0002A408D8806EA05252A434EF6FF752B40DA
:101DE0004DF6FF752B408D8906EA05152B43CD89ED
:101DF00006EA05152B4383808483CD88858702847A
:101E000070BD70B5002200230024058C4EF6FF76CD
:101E100035400584038C8488828B48F6FF752A4000
:101E20004FF6FF452A400D8820E00000002C0140BD
:101E30000004004000080040000C0040001000407A
:101E40000014004000340140004C014000500140AB
:101E50000054014000180040001C004000200040D9
:101E60000040014000440140004801404FF6FF7629
:101E700006EA05252A434DF6FF752B400D8906EA33
:101E800005352B434D8806EA05352B43FA4DA8420C
:101E900002D0FA4DA84208D14BF6FF752C408D892F
:101EA0004FF6FF7606EA85152C4384808283CD8821
:101EB000A0F84050038470BD828B4FF2FF331A406C
:101EC0008283828B4FF6FF7303EA01231A438283D6
:101ED0007047F0B50C461546002200210026078CFD
:101EE0004EF6FF7C07EA0C070784828B018C4FF6C5
:101EF000FF7707EA043640F6FF473A404FF6FF7790
:101F000007EA05273A434FF6FF7707EA03373A43D4
:101F1000D94FB8420ED0D94FB8420BD0B0F1804F54
:101F200008D0D74FB84205D0D64FB84202D0D64FCE
:101F3000B84206D14DF6FF77394046F48057394311
:101F400005E047F6FF57394044F480573943828310
:101F50000184F0BD828B4FF6F3731A408283828B2B
:101F60000A4382837047F0B50C46154600220021D3
:101F70000026078C4FF6FF6C07EA0C070784828B5C
:101F8000018C4FF6FF7707EA04264FF60C773A40AC
:101F90004FF6FF7707EA03172F433A43B64FB8428D
:101FA0000ED0B64FB8420BD0B0F1804F08D0B44F2E
:101FB000B84205D0B34FB84202D0B34FB84206D1B1
:101FC0004FF6FF57394046F48077394305E04FF22A
:101FD000FF57394044F48077394382830184F0BD50
:101FE000028B4FF2FF331A400283028B4FF6FF73CE
:101FF00003EA01231A4302837047F0B50C461546E5
:10200000002200210026078C4FF6EF7C07EA0C0720
:102010000784028B018C4FF6FF7707EA041640F61F
:10202000FF473A404FF6FF7707EA03373A434FF648
:10203000FF7707EA05273A438F4FB8420ED08F4FFC
:10204000B8420BD0B0F1804F08D08D4FB84205D0C8
:102050008C4FB84202D08C4FB84206D14FF6DF7792
:10206000394046F01007394305E04FF65F773940B5
:1020700044F01007394302830184F0BD028B4FF610
:10208000F3731A400283028B0A4302837047F0B550
:102090000C46154600220021068C4FF6FE773E4086
:1020A0000684028B018C4FF60C7632407E1C06EAC9
:1020B00003162E433243704EB0420ED06F4EB042E4
:1020C0000BD0B0F1804F08D06D4EB04205D06D4EB0
:1020D000B04202D06C4EB04206D14FF6FD76314090
:1020E00044F00106314305E04FF6F576314044F007
:1020F0000106314302830184F0BD70B505460C46EC
:102100005D4885420ED05D4885420BD0B5F1804FC9
:1021100008D05B48854205D05A48854202D05A48CB
:10212000854200D100E000BF208850B92389A288F1
:1021300061882846FFF7ABFFE1882846FFF79EFF3E
:1021400025E0208804280AD12389A28861882846AE
:10215000FFF753FFE1882846FFF742FF17E020888A
:1021600008280AD12389A28861882846FFF7FBFE48
:10217000E1882846FFF7EEFE09E02389A2886188FE
:102180002846FFF7A6FEE1882846FFF795FE70BDBA
:102190002DE9F04105460C4600260127608808B964
:1021A000022600E00026A088012801D1022700E0D5
:1021B00001272088A0B92389A28861882846FFF7D3
:1021C00066FFE1882846FFF759FF23893A463146E2
:1021D0002846FFF712FFE1882846FFF701FF13E0CA
:1021E0002389A28861882846FFF707FFE1882846EF
:1021F000FFF7F6FE23893A4631462846FFF747FFA8
:10220000E1882846FFF73AFFBDE8F0810A884B884D
:102210001A438B881A43CB881A430B891A434B897C
:102220001A438B891A43A0F8442070474FF6FF7178
:10223000818000210180C1804180017270470021AE
:10224000018041808180C180018141818181C18182
:102250007047002101804180012181800021C180DF
:10226000018170470021018041808180C18001810E
:102270004181818170470000002C01400034014001
:102280000004004000080040000C004021B102881A
:1022900042F00102028004E002884FF6FE731A4009
:1022A0000280704731B1B0F8442042F40042A0F8F7
:1022B000442005E0B0F84420C2F30E02A0F8442008
:1022C00070471AB183890B43838102E083898B4372
:1022D000838170478182704741EA0203A0F8483049
:1022E00070471AB183890B43838102E083898B4352
:1022F0008381704701894FF6F87211400181704760
:102300000A46002101894FF68F731940114301815C
:10231000704730B504460D4629462046FFF7F0FFCA
:10232000208940F00700208130BD2DE9F0410446AE
:102330000D4616461F46602D06D13B46012231460A
:102340002046FFF75AFE05E03B4601223146204673
:10235000FFF79DFE29462046FFF7D2FF208940F077
:1023600007002081BDE8F08130B50C4600210189CD
:10237000C9B24FF6FF7505EA0325154325432943E6
:10238000018130BD2DE9F04105460E4617469846BD
:10239000002443463A4631462846FFF7E5FF2C899C
:1023A0004FF6F870044044F007044FF68F70044075
:1023B00044F070042C81BDE8F081F0B504460D4670
:1023C00016461F463B46324629462046FFF7CCFFBD
:1023D000208940F480402081F0BD018582827047D1
:1023E0000A46002101884FF68F731940114301807E
:1023F0007047F0B50C4615461E460021002200230A
:102400000189028B038C4FF6F877394021434FF650
:10241000FC473A4040F201173A434FF6DD773B4024
:102420004FF6FF7707EA06172F433B4301810283EC
:102430000384F0BD0A460021018B4FF68F731940CB
:102440001143018370470A460021018B48F6FF7350
:1024500019404FF6FF7303EA0223194301837047C3
:102460000A460021818B4FF68F73194011438183F7
:1024700070470A460021818B48F6FF7319404FF6DA
:10248000FF7303EA022319438183704721B1028855
:1024900042F08002028004E002884FF67F731A4007
:1024A0000280704721B1828842F00402828004E0F9
:1024B00082884FF6FB731A408280704721B1828870
:1024C00042F00802828004E082884FF6F7731A40D7
:1024D0008280704721B1828842F00102828004E04C
:1024E00082884FF6FE731A40828070470A460021A8
:1024F000018B4FF6F77319401143018370470A4669
:102500000021018B4FF2FF7319404FF6FF7303EA6E
:1025100002231943018370470A460021818B4FF63D
:10252000F77319401143818370470A460021818B5C
:102530004FF2FF7319404FF6FF7303EA022319436A
:10254000818370470A460021018B4FF6FB731940C7
:102550001143018370470A460021018B4FF6FF3378
:1025600019404FF6FF7303EA0223194301837047B2
:102570000A460021818B4FF6FB731940114381837A
:1025800070470A460021818B4FF6FF3319404FF602
:10259000FF7303EA02231943818370470A4600212F
:1025A000018B4FF67F7319401143018370470A4630
:1025B0000021018BC1F30E014FF6FF7303EA0223E2
:1025C0001943018370470A460021818B4FF67F73C0
:1025D00019401143818370470A460021818BC1F362
:1025E0000E014FF6FF7303EA0223194381837047FC
:1025F0000A460021018C4FF6FD73194011430184F6
:1026000070470A460021018C4FF6F77319401143B9
:10261000018470470A460021018C4FF6DF73194090
:102620004FF6FF7303EA02131943018470470A4609
:102630000021018C4FF67F7319404FF6FF7303EAB8
:1026400002131943018470470A460021018C4FF69A
:10265000FF5319404FF6FF7303EA02231943018425
:1026600070470A460021018C4FF2FF7319404FF664
:10267000FF7303EA02231943018470470A460021CD
:10268000018C4DF6FF7319404FF6FF7303EA0233D6
:1026900019430184704730B5002301248C40A3B254
:1026A000048C9C430484048C02FA01F5ADB22C43E3
:1026B000048430BD30B5002304248C40A3B2048CC4
:1026C0009C430484048C02FA01F5ADB22C430484CB
:1026D00030BD70B50346002000241846183001258F
:1026E0008D40ACB21D8CA5431D8409B1082909D1C8
:1026F00000EB6100056825F070050560056815436D
:1027000005600EE00D1FC5F34E052844056825F44D
:10271000E045056005684FF6FF7606EA0226354378
:10272000056070BD21B1028842F00202028004E01F
:1027300002884FF6FD731A400280704721B102886B
:1027400042F00402028004E002884FF6FB731A4054
:102750000280704721B1828842F08002828004E0CA
:1027600082884FF67F731A408280704702884FF646
:10277000F7731A40028002880A43028070478288F9
:102780004FF68F731A40828082880A438280704796
:1027900002894FF6F8731A40028102890A430281C6
:1027A000704702894FF67F731A40028102890A43FB
:1027B00002817047818470478185704781867047A8
:1027C0000187704781877047A0F8401070470288E2
:1027D0004FF6FF431A40028002880A430280704786
:1027E0000146888E70470146088F70470146888FE2
:1027F00070470146B1F8400070470146888C704729
:102800000146088D704702460020138A0B400BB129
:10281000012000E000207047CA430282704730B5B3
:102820000246002000230024158A05EA0103958949
:1028300005EA010413B10CB1012000E0002030BD15
:10284000CA4302827047000010B50446FA48844229
:1028500008D101214015FEF79BFE00216015FEF70F
:1028600097FE17E0F548844208D101210015FEF7D4
:102870008FFE00212015FEF78BFE0BE0F04884420E
:1028800008D10121C803FEF783FE00214FF4004068
:10289000FEF77EFE10BD30B50246002000235068D2
:1028A000E84C20400D790C6844EA05242043506030
:1028B0009068E54C2040D1E902542C434D7944EA1C
:1028C000450420439060D06A20F470000C7C641EA4
:1028D000E4B2234340EA0350D06230BD00210160DE
:1028E000017141718160C16001210174704721B1A2
:1028F000826842F00102826003E0826822F00102F5
:102900008260704721B1826842F48072826003E085
:10291000826822F480728260704710B50023CBB2C7
:102920001AB144681C43446002E044689C4344601C
:1029300010BD816841F008018160704701460020A8
:102940008A6802F008020AB1012000E00020704706
:10295000816841F0040181607047014600208A6867
:1029600002F004020AB1012000E00020704721B10A
:10297000826842F4A002826003E0826822F4A0022E
:1029800082607047014600208A6802F480020AB122
:10299000012000E00020704710B50A460021002306
:1029A000416821F46041531E41EA4331416010BD4A
:1029B00021B1426842F40062426003E0426822F4BE
:1029C000006242607047F0B504460D4600200021C9
:1029D000092D11DDE068A5F10A0606EB460707267A
:1029E00006FA07F18843A5F10A0606EB460603FA44
:1029F00006F10843E0600CE0206905EB4507072677
:102A000006FA07F1884305EB450603FA06F1084389
:102A10002061072A0FDA606B561E06EB86071F2619
:102A200006FA07F18843561E06EB860605FA06F1FC
:102A30000843606322E00D2A0FDA206BD61F06EBF5
:102A400086071F2606FA07F18843D61F06EB86067F
:102A500005FA06F10843206310E0E06AA2F10D06D2
:102A600006EB86071F2606FA07F18843A2F10D063A
:102A700006EB860605FA06F10843E062F0BD21B1D7
:102A8000826842F48012826003E0826822F480123D
:102A9000826070470146C86C80B2704766484C300F
:102AA0000068704721B1426842F48062426003E0EE
:102AB000426822F480624260704721B1426842F469
:102AC0008052426003E0426822F4805242607047C4
:102AD0000A460021816821F4E0411143816070477A
:102AE00021B1826842F40042826003E0826822F4ED
:102AF00000428260704721B1826842F40212826013
:102B000003E0826822F402128260704701460020CE
:102B10008A6802F400120AB1012000E00020704728
:102B2000F0B504461546002000220026092911DDD3
:102B3000E068A1F10A0707EB470C072707FA0CF238
:102B40009043A1F10A0707EB470703FA07F2104386
:102B5000E0600CE0206901EB410C072707FA0CF25A
:102B6000904301EB410703FA07F210432061A06B89
:102B7000C0F30156EF1C06F1010CA7EB0C0707EBA5
:102B8000870C1F2707FA0CF29043EF1C06F1010C8B
:102B9000A7EB0C0707EB870701FA07F21043A063C6
:102BA000F0BD10B50A4600210023816B21F44011CD
:102BB000531E41EA0351816310BD08B50023009301
:102BC0000090009B0B440093009B1A6008BD08B561
:102BD000024600200090009201F12800009B18445A
:102BE00000900098006880B208BD0A460021416844
:102BF000164B194011434160704741628262704731
:102C00000A460021416821F01F01114341607047CD
:102C100040B109490831096841F40001064A083207
:102C2000116007E004490831096821F40001024AF3
:102C30000832116070470000002401400028014064
:102C4000003C0140FFFEF0FFFDF7F1FFFFFD3FFFFD
:102C50000246002013680B400BB1012000E0002069
:102C60007047CA430260704770B5024600200023D7
:102C700000240B125568CEB205EA060415681D4003
:102C800015B10CB1012000E0002070BD00220A1235
:102C9000D34303607047000010B56FF00400FEF7E7
:102CA00022F92E4800682E49B0FBF1F02D4908703A
:102CB0000846007800EB4001C1EBC0104FF6FF71F1
:102CC00001EAC0002849088010BD0146254A127853
:102CD0004A434FF0E0235A6100229A611A46126972
:102CE00042F001021A6100BF4FF0E022106900F0CB
:102CF00001021AB100F48032002AF5D04FF0E02230
:102D0000126922F001024FF0E0231A6100229A6159
:102D100070470146144A12884A434FF0E0235A6133
:102D200000229A611A46126942F001021A6100BF3C
:102D30004FF0E022106900F001021AB100F4803275
:102D4000002AF5D04FF0E022126922F001024FF084
:102D5000E0231A6100229A617047000030000020D1
:102D600000127A00D8030020DA030020014600BFD9
:102D7000704700BF694A128802F04002002AF9D069
:102D8000C2B2664B1B1D1A80704710B5C82164483B
:102D900002F0B4FF00206349088010BD10B586B072
:102DA0000446012144F20400FEF7D8FB4FF4007002
:102DB000ADF8140003208DF8160018208DF81700C8
:102DC00005A95948FEF70EF94FF48060ADF81400DC
:102DD00004208DF8170005A95348FEF703F92520B4
:102DE0008DF8000003208DF801008DF8020001200D
:102DF0008DF803006846FEF72CF801940020ADF82A
:102E00000800ADF80A00ADF80C00ADF810000C2079
:102E1000ADF80E0001A94548FEF747FC012240F23B
:102E200025514248FEF7D9FC01214048FEF7C9FC74
:102E3000FFF7ABFF06B010BD10B540F225513B487F
:102E4000FEF7B0FD002839D03848FEF72BFDC4B29C
:102E5000242C02D1002033490880324801880088A0
:102E6000401C304A10802E484454007824281ED13B
:102E70002B4800794D281AD129484079432816D18A
:102E80000A2C14D150212A4802F038FF2548028824
:102E90002349274802F0BBFE0120254981F8500054
:102EA000002020490880C8211D4802F027FF1D4846
:102EB0000088C82802DBC8201A49088010BD10B558
:102EC00004462146164802F071FE08B1012010BDEB
:102ED0000020FCE710B50020154981F8500081F86A
:102EE000510081F878005021114802F007FF104886
:102EF0005230002101604160018181720B3001601C
:102F00004160018181725D38A0F868106A3001600B
:102F1000416081606A38A0F8761010BD004800401A
:102F200075040020DE030020000801400038014045
:102F3000FC0300202DE9FF5F07460E4693464FF045
:102F400000083446B1463546B24607B126B94FF0BF
:102F5000FF3004B0BDE8F09F4FF000087DE0781C22
:102F600010F80800162872D2DFE800F044454671D8
:102F7000714748494A717171714B5564510B142066
:102F80002C3820788A4908700846017889A002F018
:102F9000D5FC5DE0D4F801008549C1F80100084680
:102FA000D0F801108AA002F0C9FC51E0D4F8050065
:102FB0007F49C1F805000846D0F805108CA002F042
:102FC000BDFC45E0D4F809007949C1F8090008467C
:102FD000D0F809108EA002F0B1FC39E0D4F80D0051
:102FE0007349C1F80D000846D0F80D108FA002F00B
:102FF000A5FC2DE02CE02BE02AE029E028E027E0EA
:1030000026E099F8001090A002F098FC20E091A032
:1030100002F094FC1CE0A9796A792B79A868CDE9C3
:103020000032CDE90210EB78AA7829888EA002F050
:1030300085FC0DE097A002F081FC9BA002F07EFCD5
:103040009AF800109CA002F079FC01E0FFE700BFB5
:1030500000BF08F1010000F0FF08387840453FF755
:103060007EAF002075E7994800885149C1F81100EA
:1030700097480088C1F8150096480088C1F81900E3
:1030800095480088C1F81D009448006808B10120E7
:1030900000E00020464981F821009148006808B10D
:1030A000012000E00020424981F822008D4800689C
:1030B00008B1012000E000203D4981F823008A4842
:1030C000006808B1012000E00020394981F824009F
:1030D0000846D0F80100854908603548D0F8090055
:1030E000834908603248D0F80500824908603048BA
:1030F000D0F80D00804908602D4800787F490860AD
:10310000704710B525212A4802F0F8FD10BD7C4813
:103110000068401C7A490860704779480068704729
:10312000012080F3138800BF00BF7648006800F4D8
:10313000E06075490843001D72490860BFF34F8F76
:1031400000BF00BFFEE700B5FFF7E1FF00BD08B517
:10315000002000900121684600F0DAF808BD70B543
:1031600005460E4600240DB9601E70BD00241BE00C
:10317000295D6648FEF792FB00BF80216348FEF799
:10318000FBFB0028F9D0022C0DD3285DFF280AD1C3
:1031900055215E48FEF782FB00BF80215B48FEF7A9
:1031A000EBFB0028F9D0641CB442E1D33046DCE7E5
:1031B0003D0500204576743A204556454E545F62E1
:1031C0006565705F666C6167202564200A000000F9
:1031D0004576743A4556454E545F736D6F6B655F27
:1031E0007468726573686F6C642025640A0000005F
:1031F0004576743A4556454E545F666972655F740C
:1032000068726573686F6C642025640A00000000B2
:103210004576743A4556454E545F6D71355F746816
:10322000726573686F6C642025640A004576743A91
:103230004556454E545F6D71395F746872657368A9
:103240006F6C642025640A00525353492025640A98
:10325000000000005452414E53504152454E545FBD
:1032600044415441200A0000574946495F4E54509A
:10327000203A205B25642D25642D256420253032DD
:10328000643A253032643A253032645D5B25645DF2
:10329000200A00004D4F44554C4520494E464F20D2
:1032A0002E2E2E0A00000000574946204D4F44554F
:1032B0004C45202E2E2E0A006D6F64756C65547976
:1032C0007065203A205B25645D200A0028000020FC
:1032D0002A0000202E0000202C00002008000020E2
:1032E000040000200C00002010000020140000202A
:1032F00018000020200000201C00002024000020D6
:10330000E80300200CED00E00000FA050048004052
:1033100070B504460D46002624B9F6A002F00EFB57
:10332000701E70BD2A462146FA4802F0A9FA0646E8
:10333000AE4205D0F8A002F001FB4FF0FF30F0E7FD
:103340003046EEE710B504462CB9FAA002F0F6FAC2
:103350004FF0FF3010BD002020606060FF20207023
:1033600060700020F6E770B504460D462CB9FCA04D
:1033700002F0E4FA4FF0FF3070BD2F21FE4802F05A
:10338000BDFC2A462146FC48801C02F040FCFA485D
:103390005B38A0F88450012180F85C10FFF7BDFE77
:1033A000F5495B39C1F886000020E5E7F8B5054628
:1033B0000C4616460DB104B12EB9F0A002F0BEFACB
:1033C0004FF0FF30F8BD287800F0010098B11121CE
:1033D0002278601C81542078401C207001206B1CD6
:1033E000024600210090084602F00FF908B10120C2
:1033F00000E0002030702878C0F3400088B112212E
:103400002278601C81542078401C2070688801F06C
:103410003EFE07463A460021012002F011F8C6F8A8
:1034200001002878C0F3800088B113212278601C45
:1034300081542078401C2070A88801F028FE07469F
:103440003A460021012001F0FBFFC6F8050028786C
:10345000C0F3C00088B114212278601C8154207808
:10346000401C2070E88801F012FE07463A46002111
:10347000012001F0E5FFC6F809002878C0F300102C
:1034800088B115212278601C81542078401C20705E
:10349000288901F0FCFD07463A460021012001F091
:1034A000CFFFC6F80D0000208CE72DE9F04104465F
:1034B0000D460027002604B135B9BBA002F03EFA44
:1034C0004FF0FF30BDE8F081FFF727FE0646287871
:1034D0002178884203D0BEA002F030FA0127D5F847
:1034E0000100D4F80110884203D0BFA002F026FAF0
:1034F0000127D5F80500D4F80510884203D0C2A0F2
:1035000002F01CFA0127D5F80900D4F80910884206
:1035100003D0C5A002F012FA0127D5F80D00D4F8A7
:103520000D10884203D0C7A002F008FA012795F8D1
:10353000210094F82110884203D0C9A002F0FEF9BE
:10354000012795F8220094F82210884203D0CAA0DF
:1035500002F0F4F9012795F8230094F8231088422B
:1035600003D0CBA002F0EAF9012795F8240094F8E3
:103570002410884203D0CCA002F0E0F90127D5F84E
:103580001100D4F8111088420AD0CD480068301AD2
:1035900041F27071884203D3CAA002F0CFF901272B
:1035A000D5F81500D4F8151088420AD0C448006830
:1035B000301A41F27071884203D3C7A002F0BEF9FD
:1035C0000127D5F81900D4F8191088420AD0BC4850
:1035D0000068301A41F27071884203D3C3A002F030
:1035E000ADF90127D5F81D00D4F81D1088420AD086
:1035F000B3480068301A41F27071884203D3C0A00A
:1036000002F09CF90127012F03D1FFF786FDAC4999
:103610000860384656E7F8B504460D4604B12DB9A2
:10362000BCA002F08BF94FF0FF30F8BD00202870ED
:103630006874641D14F8050C2B46012200210090CB
:10364000084602F043F8207F2B460122002100901B
:10365000112002F03BF8607F2B46012211460090BA
:10366000112002F033F8A07F2B46012202210090A6
:10367000112002F02BF8E07F2B460122032100905D
:10368000112002F023F80121284601F0B9FE0121A2
:1036900005F1110001F0B4FE54F8042C00210120C2
:1036A00001F0C7FE86B2304601F0F1FC25F8010FAB
:1036B00022680021012001F0BCFE86B2304601F0F4
:1036C000E6FC688062680021012001F0B2FE86B24B
:1036D000304601F0DCFCA880A2680021012001F046
:1036E000A8FE86B2304601F0D2FCE880E2680021F4
:1036F000012027E14552523A2067697A5075744497
:103700006174612062756620697320656D707479DB
:10371000200A0000F20600204552523A2046616914
:103720006C656420746F2072625772697465200A38
:10373000000000004552523A2067697A50726F7457
:103740006F636F6C48656164496E69742068656178
:103750006420697320656D707479200A0000000090
:103760004552523A206461746120697320656D701E
:103770007479200A00000000BD05002067697A44C2
:10378000617461506F696E74324576656E74204560
:1037900072726F72202C20496C6C6567616C2050CE
:1037A0006172616D0A00000067697A436865636B46
:1037B0005265706F7274204572726F72202C2049AE
:1037C0006C6C6567616C20506172616D0A0000006D
:1037D00076616C7565626565705F666C61672043D4
:1037E00068616E6765640A0076616C7565736D6FFC
:1037F0006B655F7468726573686F6C6420436861A1
:103800006E6765640A00000076616C7565666972B2
:10381000655F7468726573686F6C64204368616E7D
:103820006765640A0000000076616C75656D71352E
:103830005F7468726573686F6C64204368616E675B
:1038400065640A0076616C75656D71395F746872C4
:103850006573686F6C64204368616E6765640A0015
:1038600076616C7565486561745F666C616720435D
:1038700068616E6765640A0076616C75654D5132EA
:103880005F666C6167204368616E6765640A00006B
:1038900076616C75654D51355F666C616720436874
:1038A000616E6765640A000076616C75654D51391B
:1038B0005F666C6167204368616E6765640A00003B
:1038C000EC03002076616C7565486561742043687F
:1038D000616E6765640A000076616C75654D5132F2
:1038E000204368616E6765640A00000076616C754C
:1038F000654D5139204368616E6765640A000000B8
:1039000076616C75654D5135204368616E676564FD
:103910000A00000067697A44617461506F696E74CF
:1039200073325265706F72744461746120457272B3
:103930006F72202C20496C6C6567616C205061723D
:10394000616D0A0001F075FD86B2304601F09FFB03
:10395000288122690021012001F06BFD86B23046EA
:1039600001F095FB688162690021012001F061FD91
:1039700086B2304601F08BFBA881A269641F00214A
:10398000012001F056FD86B2304601F080FBE8814F
:103990006D1E002049E62DE9F04780460C4617468B
:1039A0001D46089E94F800900CB105B136B9F8A0F8
:1039B00001F0C4FF4FF0FF30BDE8F087B8F1000F11
:1039C00053D11721FE4802F099F9B9F1010F06D041
:1039D000B9F1020F11D0B9F1050F44D123E0F84A33
:1039E0006E32F749601CFFF7E1FC0120F4498A3987
:1039F000087000250020306036E0F1495C3101F1AB
:103A00003700FFF708FE50B91222ED495C31681CFF
:103A100002F0FDF8032028701320306002E04FF020
:103A2000FF30C9E720E07A1E611CE548623802F0E9
:103A3000EEF8781EE2498A39C1F84F001021E048BB
:103A40008A3890F88A208B3081548B3890F88A001D
:103A5000401CDB498A3981F88A0003200870002560
:103A60000020306000E000BF00BF0020A4E72DE987
:103A7000F04F95B006468B461746994600201490A5
:103A80008246804600256C46BBF1000F06D1CDA0D2
:103A900001F054FF681E15B0BDE8F08FB9F1010FB9
:103AA00006D196F8088008F10600384485B201E096
:103AB000781D85B22B4642463946C8A001F03EFF2C
:103AC000FF2004F8010B04F8010B281204F8010B85
:103AD00004F8015B3079401C04F8010B707904F89C
:103AE000010B002004F8010B04F8019B4FF0080AB9
:103AF000B9F1010F0CD104F8018B0AF1010A0DEBA9
:103B00000A00424606F1090102F081F8C244444429
:103B10002FB10DEB0A003A46594602F078F8291DFC
:103B2000684601F0A1FA0146E81C0DF80010291DB5
:103B30006846FFF714FB14901498002806DAB1A029
:103B4000149901F0FBFE6FF00100A4E70020A2E74A
:103B5000F0B587B005460E46174600242EB9AFA033
:103B600001F0ECFE601E07B0F0BD6846FFF7EAFB0F
:103B700005208DF8040092488A3890F85310D0F848
:103B80005300401C8E4A8A3AC2F85300C8B28DF8DE
:103B900005008DF80850182001F079FAADF8020000
:103BA0003A4631460DF1090002F031F81C21684611
:103BB00001F05AFA8DF81B001C216846FFF7CFFA76
:103BC0000446002C06DA21469EA001F0B7FE6FF0F5
:103BD0000100C8E71C216846FFF7C5FB2046C2E785
:103BE00070B50546FFF799FA0446754993312846A2
:103BF000FFF75BFC012814D199A001F09FFE7049EA
:103C00005C312846FFF707FD28B912226C495C3168
:103C10000420FFF79DFF252229466948933001F0D3
:103C2000F6FF9548B4FBF0F100FB1140D0B9934882
:103C30000068A04216D092A001F080FE60495C317D
:103C40002846FFF7E8FC28B912225D495C310420C0
:103C5000FFF77EFF252229465948933001F0D7FF10
:103C60008648046070BD2DE9FE4F80460E4617461B
:103C70004FF0000B0020029081468246002534461A
:103C80000090B8F1000F01D006B137B982A001F061
:103C900055FE4FF0FF30BDE8FE8F404601F074FD49
:103CA00000F0FF0ABAF1000F02D14FF0FF30F2E747
:103CB0004FF000095DE0012201A9404601F08FFDAF
:103CC0008346BBF1000F52D07F480078FF281FD1F8
:103CD0009DF80400FF281BD17C48007848B9FF20DC
:103CE0002070607002207A490880012077490870AE
:103CF00034E077480088042830DD75480088A84201
:103D00002CD0FF202070607002207149088025E0CF
:103D10006D480078FF2803D19DF8040055281DD078
:103D20006A480078012819D19DF80400684909887B
:103D3000605467480088401C654908800846008830
:103D400004280BDD0094009C608801F0A0F9001DA0
:103D500085B25F480088A84200D10CE09DF80400BD
:103D6000594908705B480078401C5A49087009F1AD
:103D70000109D1459FDB00BF55480088042805DDB7
:103D800053480088A84201D15148A5E0C3E0000093
:103D900067697A50726F746F636F6C49737375657E
:103DA0006450726F63657373204572726F72202C5A
:103DB00020496C6C6567616C20506172616D0A000E
:103DC000EC0500205B4552525D2020646174612047
:103DD0004973204E756C6C200A0000006C656E20E3
:103DE0003D202564202C20734469644C656E203D81
:103DF000202564202C646174615F6C656E203D2019
:103E000025640A0075617274207772697465206593
:103E100072726F72202564200A00000067697A526E
:103E200065706F727444617461204572726F7220A4
:103E30002C20496C6C6567616C20506172616D0A61
:103E4000000000004552523A20756172742077726A
:103E5000697465206572726F72202564200A000003
:103E60006368616E6765642C207265706F72742080
:103E7000646174610A000000C0270900F00300209B
:103E8000496E666F3A2036303053207265706F721B
:103E90007420646174610A0067697A50726F746F8C
:103EA000636F6C4765744F6E655061636B6574201A
:103EB0004572726F72202C20496C6C6567616C20B2
:103EC000506172616D0A0000F8030020F4030020C5
:103ED000F6030020F90300200188204601F0C4F811
:103EE0000290FD480088401E215C029881420FD15B
:103EF0002A462146304601F08AFE3D800020F749DF
:103F00000870F5490880F6490870F6490870C2E65D
:103F10006FF00100BFE60120BDE610B50024F248B5
:103F200090F85C0000B910BDF0A001F007FDEE486C
:103F3000B0F884105D30FFF712F90446EA48B0F893
:103F40008400A04202D0F1A001F0F8FCFFF7E5F8F0
:103F5000E549C1F8860000BFE5E770B50446E24DCB
:103F60005D3534B9AFF6080001F0E8FC4FF0FF30E2
:103F700070BD2879401C2179884204D12F21DA486C
:103F80005B3001F0BBFE0020F2E73EB504460025A1
:103F900024B9E4A001F0D2FC681E3EBD2068009068
:103FA000606801909DF80400401CC0B28DF80400C8
:103FB000052001F06CF8ADF802000921684601F017
:103FC00053F88DF8080009216846FFF7C8F8054640
:103FD000002D04DA2946AFF2941001F0AFFC284618
:103FE000DBE710B5C04890F85C00012827D1BE4837
:103FF00090F85B0002281DDAFFF78FF8BA49D1F874
:104000008610401AC8281AD9FFF787F80446B64820
:1040100090F85B30D0F886202146CDA001F08EFCD0
:10402000FFF77BFFB04890F85B00401CAE4981F879
:104030005B0004E02F21AC485B3001F05FFE10BD57
:1040400030B59DB0044600252CB9CBA001F076FC1C
:10405000681E1DB030BD6846FFF774F902208DF868
:10406000040060798DF80500CFA103C9CDE90201F4
:10407000D0A103C9CDE90401D1A103C9CDE908014B
:10408000D2A103C9CDE906012022D3A10AA801F0DB
:1040900003FE2022D9A10DF1520001F0B8FD00204D
:1040A000CDF84A00CDF84E009DF851008DF8510032
:1040B0009DF8510040F002018DF85110002000F0F1
:1040C000E6FFADF848006F2000F0E1FFADF8020018
:1040D0007321684600F0C8FF8DF8720073216846AE
:1040E000FFF73DF80546002D04DA2946AFF2AC2073
:1040F00001F024FC2846ACE7FEB504460E46002538
:1041000024B9C7A001F01AFC681EFEBD6846FFF77F
:1041100019F912208DF8040060798DF80500062049
:1041200000F0B5FFADF802008DF808600A2168467E
:1041300000F09AFF8DF809000A216846FFF70FF892
:104140000546002D04DA2946AFF2083001F0F6FBEF
:104150002846DAE770B5044625462CB9BBA001F025
:10416000EDFB4FF0FF3070BDBD48A9680160E96804
:104170004160298A0181A97C81725B49B1F84301C0
:1041800000F085FF5849A1F84301D1F84B0100F038
:104190008BFF5549C1F84B010E21534890F8B820C8
:1041A000B9308154B93890F8B800401C4E4981F8B4
:1041B000B800042008700020D5E710B5FEF7ADFF69
:1041C000044600BFFEF7A9FF001BB0F5167FF9D922
:1041D000FEF7A6FF10BD10B504462CB9A1A001F052
:1041E000ADFB4FF0FF3010BD208900F050FF208163
:1041F000A8480078C0F38000217AC1F3800188428A
:1042000056D0207AC0F38000002829D0207A00F010
:10421000010078B10021344890F8A120A2308154E7
:10422000A23890F8A100401C2F4981F8A1009AA063
:1042300001F084FB207AC0F34000002838D001212F
:10424000294890F8A120A2308154A23890F8A1000A
:10425000401C254981F8A10097A001F06FFB27E0E1
:10426000207A00F0010078B100211F4890F8A120C9
:10427000A2308154A23890F8A100401C1A4981F85C
:10428000A10085A001F05AFB207AC0F3400078B16C
:104290000221154890F8A120A2308154A23890F84C
:1042A000A100401C104981F8A1008AA001F046FB42
:1042B00078480078C0F3C000217AC1F3C001884279
:1042C00009D0207AC1087348007861F3C3007149AE
:1042D0000870207A0CE12FE1F6030020F40300209F
:1042E000F9030020F8030020620500205761726E78
:1042F000696E673A2074696D656F75742C207265FC
:1043000073656E642064617461200A004552523AFC
:1043100020726573656E64206461746120657272D9
:104320006F720A004552523A2067697A50726F7470
:104330006F636F6C436F6D6D6F6E41636B20646173
:10434000746120697320656D707479200A00000023
:104350005761726E696E673A67697A50726F746FEF
:10436000636F6C526573656E64446174612025648B
:104370002025642025640A0067697A50726F746F83
:10438000636F6C476574446576696365496E666FF3
:10439000204572726F72202C20496C6C6567616CCD
:1043A00020506172616D0A0030303030303030346E
:1043B000000000003030303030303032000000007B
:1043C00030333033303030300000000030333031A3
:1043D00030313030000000006431346331303665F4
:1043E000623136653433306539666238643563313D
:1043F000363232643934633100000000363964618A
:104400006335323965376165343539653961343141
:10441000616333343866306566343761000000000C
:1044200067697A50726F746F636F6C4572726F72E6
:10443000436D64204572726F72202C20496C6C654C
:1044400067616C20506172616D0A00004552523AFA
:10445000204E545020697320656D707479200A00D5
:10446000A506002067697A50726F746F636F6C4D98
:104470006F64756C65537461747573204572726FE7
:1044800072202C20496C6C6567616C2050617261F0
:104490006D0A0000FA0300204F6E426F617264697A
:1044A0006E673A20536F66744150206F72205765D3
:1044B00062206D6F64650A004F6E426F61726469BD
:1044C0006E673A204169724C696E6B206D6F64654E
:1044D0000A0000004F6E426F617264696E673A2095
:1044E00053746174696F6E206D6F64650A0000001B
:1044F000C0F3C00080B10321FB4890F8A120A23096
:104500008154A23890F8A100401CF74981F8A1001D
:10451000F6A001F013FA0FE00421F34890F8A1206F
:10452000A2308154A23890F8A100401CEE4981F8D5
:10453000A100F6A001F002FAFC480078C0F30010D8
:10454000217AC1F3001188422CD0207A0109F74862
:10455000007861F30410F5490870207AC0F3001068
:1045600080B10521E04890F8A120A2308154A23802
:1045700090F8A100401CDC4981F8A100ECA001F0FA
:10458000DDF90FE00621D84890F8A120A23081542F
:10459000A23890F8A100401CD34981F8A100ECA0FA
:1045A00001F0CCF9E1480078C0F34010217AC1F362
:1045B000401188422CD0207A4109DC48007861F310
:1045C0004510DA490870207AC0F3401080B1072105
:1045D000C54890F8A120A2308154A23890F8A100DB
:1045E000401CC14981F8A100E2A001F0A7F90FE049
:1045F0000821BD4890F8A120A2308154A23890F83B
:10460000A100401CB84981F8A100E1A001F096F991
:10461000C6484078C0F3C001607AC0F3C000814250
:104620002CD0607AC108C148407861F3C300BF490B
:104630004870607AC0F3C00080B10B21AA4890F89E
:10464000A120A2308154A23890F8A100401CA649B4
:1046500081F8A100D6A001F071F90FE00C21A24869
:1046600090F8A120A2308154A23890F8A100401CFB
:104670009D4981F8A100D5A001F060F9AB484078D0
:10468000C0F30011607AC0F3001081422CD0607A30
:104690000109A648407861F30410A4494870607A83
:1046A000C0F3001080B109218F4890F8A120A230FA
:1046B0008154A23890F8A100401C8B4981F8A100D8
:1046C000CAA001F03BF90FE00A21874890F8A12029
:1046D000A2308154A23890F8A100401C824981F890
:1046E000A100C9A001F02AF90D217F4890F8A1206E
:1046F000A2308154A23890F8A100401C7A4981F878
:10470000A100607A00F0070081F84201084690F8A5
:104710004211C4A001F012F9022073490870002070
:1047200061E510B54E20C3490860C348C86008461B
:1047300001F00CF818B9C1A001F000F902E0C4A022
:1047400001F0FCF84FF4C871674801F0D7FA10BDCA
:1047500030B587B005460024062D7DD2DFE805F090
:1047600003316193C2C101A8FEF7ECFD0B208DF867
:1047700008005D4890F85310D0F85300401C5A4A86
:10478000C2F85300C8B28DF80900052000F07FFC84
:10479000ADF80600092101A800F066FC8DF80C00B8
:1047A000092101A8FEF7DBFC0446002C04DA2146AF
:1047B000AFF6701001F0C2F8092101A8FEF7D3FD91
:1047C000B0E104A8FEF7BEFD09208DF814004648AC
:1047D00090F85310D0F85300401C434AC2F85300DD
:1047E000C8B28DF815008DF81850062000F04FFC67
:1047F000ADF812000A2104A800F036FC8DF819006B
:104800000A2104A8FEF7ABFC0446002C04DA21467A
:10481000AFF6D01001F092F80A2104A8FEF7A3FD2C
:1048200080E104A8FEF78EFD09208DF814002E48C3
:1048300090F85310D0F85300401C2B4AC2F8530094
:10484000C8B28DF815008DF81850062000F01FFC36
:10485000ADF812000A2100E060E104A800F004FCB9
:104860008DF819000A2104A8FEF779FC0446002CF3
:1048700004DA2146AFF6342001F060F80A2104A8DA
:10488000FEF771FD4EE101A8FEF75CFD13208DF8E7
:104890000800154890F85310D0F85300401C124AF5
:1048A000C2F85300C8B28DF80900052000F0EFFBF4
:1048B000ADF80600092101A800F0D6FB8DF80C0028
:1048C000092101A8FEF74BFC0446002C04DA21461E
:1048D000AFF6902001F032F8092101A8FEF743FD60
:1048E00020E1EDE0BEE00000620500205769466966
:1048F000207374617475733A20696E2062696E6406
:10490000696E67206D6F64650A000000576946692B
:10491000207374617475733A206F75742062696EC8
:1049200064696E67206D6F64650A0000FA030020F9
:1049300057694669207374617475733A20636F6EAA
:104940006E656374656420726F757465720A000029
:1049500057694669207374617475733A206469738A
:10496000636F6E6E656374656420726F75746572D3
:104970000A00000057694669207374617475733AC0
:1049800020636F6E6E6563746564206D326D0A001E
:1049900057694669207374617475733A206469734A
:1049A000636F6E6E6563746564206D326D0A00001E
:1049B00057694669207374617475733A2061707029
:1049C00020636F6E6E6563740A0000005769466964
:1049D000207374617475733A206E6F20617070205B
:1049E000636F6E6E6563740A000000005769466964
:1049F000207374617475733A20696E2074657374E2
:104A0000206D6F64650A0000576946692073746100
:104A10007475733A206F75742074657374206D6FAC
:104A200064650A0052535349206973202564200AA3
:104A300000000000F20600200207002072624372AC
:104A4000656174652053756363657373200A0000A4
:104A50007262437265617465204661696C64200A04
:104A60000000000001A8FEF76DFC15208DF808007D
:104A7000F64890F85310D0F85300401CF34AC2F89F
:104A80005300C8B28DF80900052000F000FBADF816
:104A90000600092101A800F0E7FA8DF80C000921B1
:104AA00001A8FEF75CFB0446002C04DA2146AFF6B1
:104AB0006C4000F043FF092101A8FEF754FC31E0EF
:104AC00001A8FEF73FFC29208DF80800DF4890F888
:104AD0005310D0F85300401CDC4AC2F85300C8B24F
:104AE0008DF80900052000F0D2FAADF80600092182
:104AF00001A800F0B9FA8DF80C00092101A8FEF711
:104B00002EFB0446002C04DA2146AFF6C84000F024
:104B100015FF092101A8FEF726FC03E0CCA000F058
:104B20000DFF00BF00BF204607B030BD3EB50024DA
:104B30006846FEF707FC17208DF80400C34890F87C
:104B40005310D0F85300401CC04AC2F85300C8B2FA
:104B50008DF80500052000F09AFAADF80200092151
:104B6000684600F081FA8DF8080009216846FEF7D2
:104B7000F6FA0446002C03DA2146BBA000F0DEFE64
:104B800009216846FEF7EFFB3EBD3EB500246846AE
:104B9000FEF7D8FB21208DF80400AC4890F85310A4
:104BA000D0F85300401CA94AC2F85300C8B28DF88F
:104BB000050000208DF80800062000F068FAADF826
:104BC00002000A21684600F04FFA8DF809000A2118
:104BD0006846FEF7C4FA0446002C03DA2146A2A078
:104BE00000F0ACFE0A216846FEF7BDFB3EBD70B585
:104BF000044625462CB9A4A000F0A0FE4FF0FF30DB
:104C000070BD412205F10801A34801F000F80F2111
:104C10008E4890F8CF20D0308154D03890F8CF0013
:104C2000401C8A4981F8CF00052008700020E7E782
:104C30002DE9F04198B0054600260020039002902F
:104C400000248046002735B994A000F077FE601E4E
:104C500018B0BDE8F081FFF7C4F903AA7B49491CED
:104C60009848FFF700F80646002E72D196A000F093
:104C700065FE764C641C20790F284FD00ADC0E2884
:104C800073D2DFE800F07216721A727243387272D1
:104C90004472453C182852D006DC112847D014280D
:104CA00046D0162861D134E0222854D02A285CD17D
:104CB00030E02046FFF7C4F95FE0E279A17987A0F0
:104CC00000F03CFE02A8009007F10900BDF80C308E
:104CD0001A1A5E480930C11904AB4046FEF75BFE64
:104CE00040B9E37904A92046029AFEF7C0FE7FA0EE
:104CF00000F024FE41E02046FFF747F93DE0204662
:104D0000FFF743F92046FFF766FA36E000BF00BF21
:104D100000BF00BF2046FFF720F92EE02046FFF736
:104D200034F975A000F00AFEFFF747FA25E024E009
:104D30002046FFF712F975A000F000FE1DE02046A6
:104D4000FFF70BF92046FFF705FA78A000F0F6FD13
:104D500013E013E009E02046FFF7FFF82046FFF7D5
:104D600046FF78A000F0EAFD07E002212046FFF7A9
:104D7000C3F97BA000F0E2FD00BF0EE016F1020FC8
:104D80000BD1324C641C01212046FFF7B5F97AA003
:104D900000F0D4FD6FF001005AE72C480078062897
:104DA0004DD2DFE800F04C0312222D3D00202749B0
:104DB00008702522F831A1F16E00FEF7BBF817212B
:104DC00022488A3000F09AFF3AE000201F4908701C
:104DD000012201F5A171A1F1A100FEF7ABF81721A5
:104DE0001A48A13000F08AFF2AE000201749087015
:104DF0000846D0F84F2028318A30FEF79BF81FE094
:104E00000020124908700C2201F24311A1F18B001D
:104E1000FEF790F817212048973800F06FFF0FE059
:104E200000200A49087041221B49A1F18000FEF7C9
:104E300081F841211848803800F060FF00E000BF91
:104E400000BF2846FEF7CCFE002001E762050020E7
:104E50004552523A204366674D6F64652065727211
:104E60006F72210A000000004552525B4E54505DA3
:104E70003A20756172742077726974652065727268
:104E80006F72202564200A004E54502069732065FB
:104E90006D707479200A0000B106002047697A77A6
:104EA00069747348616E646C65204572726F72201C
:104EB0002C20496C6C6567616C20506172616D0AD1
:104EC00000000000F2060020476574204F6E652048
:104ED0005061636B6574210A00000000666C6167B5
:104EE000202578202578200A0000000041636B44CB
:104EF000617461203A200A007265706F72743A4DD5
:104F00004355207265626F6F74210A0041636B2004
:104F100050524F44554354494F4E5F4D4F444520E6
:104F200073756363657373200A00000041636B202F
:104F30004745545F555454207375636365737320FC
:104F40000A00000041636B204745545F4D6F647554
:104F50006C652073756363657373200A000000003D
:104F60004552523A20636D6420636F646520657218
:104F7000726F72210A0000004552523A2063686540
:104F8000636B2073756D206572726F72210A000069
:104F90002DE9F0418AB006460F464FF000086C46F6
:104FA000B81D85B23EB924A000F0C8FC4FF0FF3018
:104FB0000AB0BDE8F081FF2004F8010B04F8010BF2
:104FC000281204F8010B04F8015B052004F8010B1A
:104FD000234890F85310D0F85300401C204AC2F8E0
:104FE000530004F8011B002004F8010B04F8010B26
:104FF000062004F8010B3A4631460DF1090000F095
:1050000006FE291D684600F02FF80146E81C0DF841
:105010000010291D6846FEF7A2F88046B8F1000F7F
:1050200003DA41460F4800F089FC291D6846FEF767
:105030009AF90020BCE700005B4552525D20676989
:105040007A77697473506173737468726F75676887
:1050500044617461204572726F72200A0000000082
:1050600062050020443E000810B5024600240023DB
:1050700002B109B9002010BD022303E0D05C204436
:10508000C4B25B1C481E9842F8D82046F3E701B52D
:1050900081B000200090694601AA5078087010780D
:1050A0004870BDF800000CBD0146080601F47F42BF
:1050B00040EA022001F47F0240EA122040EA116037
:1050C000704710B502460024302A05DB392A03DC7C
:1050D000A2F13000C3B20EE0412A05DB462A03DC10
:1050E000A2F13700C3B206E0612A04DB662A02DCC3
:1050F000A2F15700C3B2302905DB392903DCA1F145
:105100003000C4B20EE0412905DB462903DCA1F1E1
:105110003700C4B206E0612904DB662902DCA1F194
:105120005700C4B204EB0310C0B210BD70B5044602
:1051300000250026204600F04BFD06460CB9681EEF
:1051400070BD002505E0605D302801D00020F7E744
:105150006D1CB542F7D30120F2E72DE9F043034679
:1051600000BF0025002400260027012901D00229C4
:105170000DD1A3F1010C4FF06408BCFBF8F4BCFBAB
:10518000F8F908FB19C501F10C06174609E04FF0C4
:10519000640CB3FBFCF4B3FBFCF80CFB18350E46B7
:1051A000174606F1010C4FF01A080CFB08FC4FF0F3
:1051B0000A08BCFBF8FC05EB950808EB94084FF0D7
:1051C000020909FB1488C444BC44ACF10100002866
:1051D00006DB4FF0070C90FBFCF80CFB180C07E00B
:1051E0004FF0070C90FBFCF80CFB180C0CF1070CB3
:1051F0006046BDE8F08301460A46C81701EB90708F
:105200008010A1EB800070B9642091FBF0F300FBEB
:10521000131030B94FF4C87091FBF0F300FB13107A
:1052200008B9012070470020FCE710B5044620466D
:10523000FFF7E1FF10B14FF4B77010BD40F26D10F1
:10524000FBE72DE9F04190B080460E4640F2B27582
:105250003022694901A800F01FFD344604F5E144FD
:1052600000BF11E02846FFF7E0FF074640F2A32009
:105270007843B4EBC01F06D340F2A3207843A4EBDD
:10528000C0146D1C00E001E0002CEBD100BFA8B2FF
:10529000ADF83400002518E0BDF83400FFF7ABFF8F
:1052A00008B11D20029001A850F8250040F2A3216A
:1052B0004843B4EBC01F07D301A850F8250048436A
:1052C000A4EBC0146D1C00E001E0002CE4D100BF91
:1052D0001C200290681CC0B28DF83600012506E043
:1052E0004648844202D3241A6D1C00E001E0002CE1
:1052F000F6D100BFE8B28DF837004FF46160B4FB1F
:10530000F0F0C0B28DF838004FF46160B4FBF0F1FA
:1053100000FB11403C21B0FBF1F0C0B28DF8390028
:105320003C20B4FBF0F100FB11408DF83A00CDF8C1
:105330003B600D98C8F800000E98C8F80400BDF84E
:105340003C00A8F808009DF83E0088F80A0010B05C
:10535000BDE8F0812DE9F05F80460E4691460024BD
:105360001CE016F814A06000401C16F800B050466F
:1053700000F0D4FA3038C5B2092D01DDE81FC5B2FE
:10538000584600F0CBFA3038C7B2092F01DDF81FBC
:10539000C7B207EB051008F80400641C4C45E0DBBD
:1053A000BDE8F09FF0B5034600201EE00E5CF71745
:1053B00006EB17773F1107F130050E5CF71706EB88
:1053C00017773F11A6EB07173037FCB2392D01DDF7
:1053D000EE1DF5B2392C01DDE61DF4B203F81050D4
:1053E000012606EB40069C55401C9042DEDB002661
:1053F00003F81260F0BD00002C6D00088051010020
:1054000030B502460B460021002400250AB9481E8B
:1054100030BD002108E0545C581A401E155C5554FC
:10542000581A401E1454491CB1EB530FF3D30020FB
:10543000EEE710B503460020541AB4FBF3F010BD9C
:1054400010B50346002002FB031010BD2DE9F04704
:1054500004460E46154600273146284600F0E4FF74
:105460008146214600F01EFE804600F0DDFE074624
:105470003846BDE8F0872DE9F04704460E4615464C
:105480000027284600F0F0FE8146214600F000FF8C
:105490008046314600F0A4FD07463846BDE8F08757
:1054A000024612B102F0070028B9082901D80020ED
:1054B00070470120FCE702F00700C0F108008842B5
:1054C00001D30020F4E70120F2E72DE9F04705467B
:1054D000884614461E464FF00009CA46002700239E
:1054E00014B9581EBDE8F087EB0841462846FFF77F
:1054F000D7FF07463FB9E05C05F0070106FA01F166
:105500000843E0541DE0012F1BD1F0B205F0070164
:10551000C1F1080140FA01F905F00700C0F10801E6
:10552000FF20084100EA060A581C205C40EA0900F6
:10553000591C6054E05C05F007010AFA01F10843C8
:10554000E0540020CEE72DE9F04F8FB004460F461F
:1055500090461D460026B246B146B34600200E9046
:10556000B8F1000F00D025B94FF0FF300FB0BDE803
:10557000F08F4FEAD4092A46414601A800F047FBC4
:10558000012D09D9294601A8FFF73AFFB0F1FF3FE5
:1055900002D14FF0FF30E9E739462046FFF780FFA0
:1055A0008246BAF1000F0CD101A810F8090004F0EE
:1055B00007010841C7F10802FF21114108400643D5
:1055C00021E0BAF1010F1ED101A909F10100085C27
:1055D00004F00701C1F10801791AC1F10802FF21A5
:1055E000114100EA010B01A810F8090004F00701BD
:1055F00008410E9004F00700C0F108010BFA01F019
:1056000006430E9806433046B0E72DE9F04F8FB0C1
:1056100005460C4616469946189F4FF0000AD34699
:1056200000200E908046B9F1000F00D027B94FF04E
:10563000FF300FB0BDE8F08F3A46494601A800F0B0
:10564000E6FA012F09D9394601A8FFF7D9FEB0F1D2
:10565000FF3F02D14FF0FF30EBE731462046FFF726
:105660001FFF8246BAF1000F0CD101A8405D04F083
:1056700007010841C6F10802FF211141084040EA34
:10568000080821E0BAF1010F1ED101A9681C085CCD
:1056900004F00701C1F10801711AC1F10802FF21EC
:1056A000114100EA010B01A8405D04F00701084127
:1056B0000E9004F00700C0F108010BFA01F040EA77
:1056C00008080E9848EA00084046B2E72DE9F0477E
:1056D00004460D461746089E4FF00009CA46C846C4
:1056E0001BB94FF0FF30BDE8F08739462846FFF779
:1056F000D7FE8046B8F1000F07D1185D05F007010D
:1057000006FA01F1084318551EE0B8F1010F1BD14C
:10571000F0B205F00701C1F1080140FA01F905F006
:105720000700C0F10801FF20084100EA060A601CDA
:10573000185C40EA0900611C5854185D05F0070127
:105740000AFA01F1084318550020CCE7014611B9C7
:105750004FF0FF307047C8684860C8688860002014
:10576000F8E7014611B94FF0FF3070470020C860DC
:1057700048608860086000BFF7E7014611B94FF044
:10578000FF3070470868FCE700B5024612B94FF0D9
:10579000FF3000BD50689168884201D10020F8E7D1
:1057A00050689168884203D290685168401AF0E7C7
:1057B0001046FFF7E2FF51689368C91A401AE8E7FC
:1057C00030B5044614B94FF0FF3030BD2046FFF726
:1057D000D4FF05462046FFF7D7FF281AF5E72DE945
:1057E000F04104460F461646002514B9681EBDE870
:1057F000F08117B94FF0FF30F9E76068A16888427F
:1058000014D22046FFF7C0FFB04201D9304602E073
:105810002046FFF7B9FF054661682A46384600F082
:10582000F6F96068284460602846E0E72046FFF704
:10583000A4FF6168E268891A401AB0420AD9354665
:1058400061682A46384600F0E2F9606828446060E2
:105850002846CCE72046FFF790FF6168E268891A86
:10586000451A61682A46384600F0D1F9E068606060
:10587000721B79192046FFF7B2FF05442846B6E7A8
:105880002DE9F04104460F461546002604B11FB924
:105890004FF0FF30BDE8F0812046FFF791FFA842AE
:1058A00002D86FF00100F5E76068A16888422AD845
:1058B0002046FFF762FFA168E268891A461AB542DE
:1058C00013D8A0682A46394600F0A1F9A0682844F8
:1058D000A0602046FFF751FFE1680844A1688842B4
:1058E00001D1E068A0602846D4E7A0683246394676
:1058F00000F08DF9E068A060AA1BB9192046FFF7F7
:10590000BFFF3044C6E7A0682A46394600F07FF959
:10591000A0682844A0602846BCE7704710B504463C
:1059200000F012FA0068005D000704D5DF2C02D0F9
:10593000A4F1200010BD204610BD00000FB40449A2
:1059400010B503AA029800F061FA10BC5DF814FBD0
:10595000E003002070B5044685690068C10601D5E2
:10596000302600E02026C00707D070BDD4E9012111
:1059700030469047206A401C20626D1EF6D570BDEF
:1059800070B5044685690078C00707D170BDD4E9B9
:10599000012120209047206A401C20626D1EF6D510
:1059A00070BD00002DE9F0410646002410687529FD
:1059B000314616A510D0AFF30080002802DA40422D
:1059C00013A507E031688A0701D512A502E049074F
:1059D00004D511A5012401E0AFF3008000210A22C3
:1059E00006F1240709E0B0FBF2FCB0FBF2F302FB86
:1059F0001C00303078541846491C0028F3D1234647
:105A00002A463046BDE8F04100F0A6B9000000008B
:105A10002D0000002B0000002000000070B504469F
:105A20000D4621461068AFF300802188090502D594
:105A30000F4A7A4402E00E4A7A440E32002104F101
:105A4000240305E000F00F060009965D5E54491C32
:105A50000028F7D120780023000704D5702D02D04C
:105A600009B1022311322046BDE8704000F074B93C
:105A7000261300002DE9F05F894604464FF0000A26
:105A8000DFF824B1FB44C0F820A02046E168884735
:105A900000287DD0252806D0D4E901219047206A2E
:105AA000401C2062F1E700255F462046E1688847F8
:105AB0002028064607DB312E05D2B81910F8200C35
:105AC00008B10543F1E7A80701D525F00405C4F89E
:105AD0001CA00027C4F818A02A2E09D0304600F0D8
